{
  "contractName": "Apostas",
  "abi": [
    {
      "inputs": [],
      "name": "eventoCount",
      "outputs": [
        {
          "internalType": "uint256",
          "name": "",
          "type": "uint256"
        }
      ],
      "stateMutability": "view",
      "type": "function",
      "constant": true
    },
    {
      "inputs": [
        {
          "internalType": "uint256",
          "name": "",
          "type": "uint256"
        }
      ],
      "name": "eventos",
      "outputs": [
        {
          "internalType": "address",
          "name": "criador",
          "type": "address"
        },
        {
          "internalType": "string",
          "name": "nome",
          "type": "string"
        },
        {
          "internalType": "uint256",
          "name": "resultado",
          "type": "uint256"
        }
      ],
      "stateMutability": "view",
      "type": "function",
      "constant": true
    },
    {
      "inputs": [
        {
          "internalType": "string",
          "name": "_nome",
          "type": "string"
        }
      ],
      "name": "criarEvento",
      "outputs": [],
      "stateMutability": "nonpayable",
      "type": "function"
    },
    {
      "inputs": [
        {
          "internalType": "uint256",
          "name": "_eventoId",
          "type": "uint256"
        }
      ],
      "name": "apostar",
      "outputs": [],
      "stateMutability": "payable",
      "type": "function",
      "payable": true
    },
    {
      "inputs": [
        {
          "internalType": "uint256",
          "name": "_eventoId",
          "type": "uint256"
        },
        {
          "internalType": "uint256",
          "name": "_resultado",
          "type": "uint256"
        }
      ],
      "name": "resolverEvento",
      "outputs": [],
      "stateMutability": "nonpayable",
      "type": "function"
    }
  ],
  "bytecode": "0x608060405234801561001057600080fd5b50610d2f806100206000396000f3fe60806040526004361061004a5760003560e01c8063087e9d0f1461004f5780633137791e1461008e578063512fc5de146100b9578063bab4dd93146100e2578063d0349c1b1461010b575b600080fd5b34801561005b57600080fd5b50610076600480360381019061007191906106c5565b610127565b604051610085939291906107db565b60405180910390f35b34801561009a57600080fd5b506100a36101f9565b6040516100b09190610819565b60405180910390f35b3480156100c557600080fd5b506100e060048036038101906100db9190610969565b6101ff565b005b3480156100ee57600080fd5b50610109600480360381019061010491906109b2565b61028f565b005b610125600480360381019061012091906106c5565b6104ee565b005b60006020528060005260406000206000915090508060000160009054906101000a900473ffffffffffffffffffffffffffffffffffffffff169080600101805461017090610a21565b80601f016020809104026020016040519081016040528092919081815260200182805461019c90610a21565b80156101e95780601f106101be576101008083540402835291602001916101e9565b820191906000526020600020905b8154815290600101906020018083116101cc57829003601f168201915b5050505050908060020154905083565b60015481565b6001600081548092919061021290610a81565b9190505550600080600060015481526020019081526020016000209050338160000160006101000a81548173ffffffffffffffffffffffffffffffffffffffff021916908373ffffffffffffffffffffffffffffffffffffffff1602179055508181600101908051906020019061028a9291906105d8565b505050565b600080600084815260200190815260200160002090508060000160009054906101000a900473ffffffffffffffffffffffffffffffffffffffff1673ffffffffffffffffffffffffffffffffffffffff163373ffffffffffffffffffffffffffffffffffffffff1614610337576040517f08c379a000000000000000000000000000000000000000000000000000000000815260040161032e90610b15565b60405180910390fd5b600081600201541461037e576040517f08c379a000000000000000000000000000000000000000000000000000000000815260040161037590610b81565b60405180910390fd5b600182148061038d5750600282145b6103cc576040517f08c379a00000000000000000000000000000000000000000000000000000000081526004016103c390610bed565b60405180910390fd5b81816002018190555060005b60028110156104e85760008082146103f15760006103f3565b335b905060008360030160008373ffffffffffffffffffffffffffffffffffffffff1673ffffffffffffffffffffffffffffffffffffffff1681526020019081526020016000205411156104d4578073ffffffffffffffffffffffffffffffffffffffff166108fc60028560030160008573ffffffffffffffffffffffffffffffffffffffff1673ffffffffffffffffffffffffffffffffffffffff168152602001908152602001600020546104a79190610c0d565b9081150290604051600060405180830381858888f193505050501580156104d2573d6000803e3d6000fd5b505b5080806104e090610a81565b9150506103d8565b50505050565b60008060008381526020019081526020016000209050600081600201541461054b576040517f08c379a000000000000000000000000000000000000000000000000000000000815260040161054290610b81565b60405180910390fd5b6000341161058e576040517f08c379a000000000000000000000000000000000000000000000000000000000815260040161058590610cd9565b60405180910390fd5b348160030160003373ffffffffffffffffffffffffffffffffffffffff1673ffffffffffffffffffffffffffffffffffffffff168152602001908152602001600020819055505050565b8280546105e490610a21565b90600052602060002090601f016020900481019282610606576000855561064d565b82601f1061061f57805160ff191683800117855561064d565b8280016001018555821561064d579182015b8281111561064c578251825591602001919060010190610631565b5b50905061065a919061065e565b5090565b5b8082111561067757600081600090555060010161065f565b5090565b6000604051905090565b600080fd5b600080fd5b6000819050919050565b6106a28161068f565b81146106ad57600080fd5b50565b6000813590506106bf81610699565b92915050565b6000602082840312156106db576106da610685565b5b60006106e9848285016106b0565b91505092915050565b600073ffffffffffffffffffffffffffffffffffffffff82169050919050565b600061071d826106f2565b9050919050565b61072d81610712565b82525050565b600081519050919050565b600082825260208201905092915050565b60005b8381101561076d578082015181840152602081019050610752565b8381111561077c576000848401525b50505050565b6000601f19601f8301169050919050565b600061079e82610733565b6107a8818561073e565b93506107b881856020860161074f565b6107c181610782565b840191505092915050565b6107d58161068f565b82525050565b60006060820190506107f06000830186610724565b81810360208301526108028185610793565b905061081160408301846107cc565b949350505050565b600060208201905061082e60008301846107cc565b92915050565b600080fd5b600080fd5b7f4e487b7100000000000000000000000000000000000000000000000000000000600052604160045260246000fd5b61087682610782565b810181811067ffffffffffffffff821117156108955761089461083e565b5b80604052505050565b60006108a861067b565b90506108b4828261086d565b919050565b600067ffffffffffffffff8211156108d4576108d361083e565b5b6108dd82610782565b9050602081019050919050565b82818337600083830152505050565b600061090c610907846108b9565b61089e565b90508281526020810184848401111561092857610927610839565b5b6109338482856108ea565b509392505050565b600082601f8301126109505761094f610834565b5b81356109608482602086016108f9565b91505092915050565b60006020828403121561097f5761097e610685565b5b600082013567ffffffffffffffff81111561099d5761099c61068a565b5b6109a98482850161093b565b91505092915050565b600080604083850312156109c9576109c8610685565b5b60006109d7858286016106b0565b92505060206109e8858286016106b0565b9150509250929050565b7f4e487b7100000000000000000000000000000000000000000000000000000000600052602260045260246000fd5b60006002820490506001821680610a3957607f821691505b602082108103610a4c57610a4b6109f2565b5b50919050565b7f4e487b7100000000000000000000000000000000000000000000000000000000600052601160045260246000fd5b6000610a8c8261068f565b91507fffffffffffffffffffffffffffffffffffffffffffffffffffffffffffffffff8203610abe57610abd610a52565b5b600182019050919050565b7f536f6d656e7465206f2063726961646f7220706f6465207265736f6c76657200600082015250565b6000610aff601f8361073e565b9150610b0a82610ac9565b602082019050919050565b60006020820190508181036000830152610b2e81610af2565b9050919050565b7f4576656e746f207265736f6c7669646f00000000000000000000000000000000600082015250565b6000610b6b60108361073e565b9150610b7682610b35565b602082019050919050565b60006020820190508181036000830152610b9a81610b5e565b9050919050565b7f526573756c7461646f20696e76616c69646f0000000000000000000000000000600082015250565b6000610bd760128361073e565b9150610be282610ba1565b602082019050919050565b60006020820190508181036000830152610c0681610bca565b9050919050565b6000610c188261068f565b9150610c238361068f565b9250817fffffffffffffffffffffffffffffffffffffffffffffffffffffffffffffffff0483118215151615610c5c57610c5b610a52565b5b828202905092915050565b7f56616c6f722064612061706f737461206465766520736572206d61696f72207160008201527f7565203000000000000000000000000000000000000000000000000000000000602082015250565b6000610cc360248361073e565b9150610cce82610c67565b604082019050919050565b60006020820190508181036000830152610cf281610cb6565b905091905056fea26469706673582212203b4ce553633468a1f979c57eaae22665b76288393b00d263bacdb0de66742c3c64736f6c634300080d0033",
  "immutableReferences": {},
  "source": "// SPDX-License-Identifier: MIT\r\npragma solidity ^0.8.0;\r\n\r\ncontract Apostas {\r\n    struct Evento {\r\n        address criador;\r\n        string nome;\r\n        uint resultado; // 0 - No resolvido, 1 - Cara, 2 - Coroa\r\n        mapping(address => uint) apostas; // Mapeia o endereo do apostador para o valor da aposta\r\n        mapping(address => bool) apostadorCorreto; // Mapeia os apostadores corretos\r\n    }\r\n\r\n    mapping(uint => Evento) public eventos;\r\n    uint public eventoCount;\r\n\r\n    // Funo para criar um evento de aposta\r\n    function criarEvento(string memory _nome) public {\r\n        eventoCount++;\r\n        Evento storage novoEvento = eventos[eventoCount];\r\n        novoEvento.criador = msg.sender;\r\n        novoEvento.nome = _nome;\r\n    }\r\n\r\n    // Funo para apostar no evento\r\n    function apostar(uint _eventoId) public payable {\r\n        Evento storage evento = eventos[_eventoId];\r\n        require(evento.resultado == 0, \"Evento resolvido\");\r\n        require(msg.value > 0, \"Valor da aposta deve ser maior que 0\");\r\n\r\n        evento.apostas[msg.sender] = msg.value;\r\n    }\r\n\r\n    // Funo para resolver o evento e determinar o resultado\r\n    function resolverEvento(uint _eventoId, uint _resultado) public {\r\n        Evento storage evento = eventos[_eventoId];\r\n        require(msg.sender == evento.criador, \"Somente o criador pode resolver\");\r\n        require(evento.resultado == 0, \"Evento resolvido\");\r\n        require(_resultado == 1 || _resultado == 2, \"Resultado invalido\");\r\n\r\n        evento.resultado = _resultado;\r\n\r\n        // Aqui voc pode distribuir o prmio para os apostadores corretos (exemplo simples)\r\n        for (uint i = 0; i < 2; i++) {\r\n            address apostador = i == 0 ? msg.sender : address(0); // Apenas como exemplo\r\n            if (evento.apostas[apostador] > 0) {\r\n                payable(apostador).transfer(evento.apostas[apostador] * 2); // Multiplica por 2 como prmio\r\n            }\r\n        }\r\n    }\r\n}\r\n",
  "sourcePath": "D:\\GitHub\\pbl-redes3\\contracts\\Apostas.sol",
  "compiler": {
    "name": "solc",
    "version": "0.8.13+commit.abaa5c0e.Emscripten.clang"
  },
  "schemaVersion": "3.4.16",
  "updatedAt": "2024-12-14T17:03:06.998Z",
  "networkType": "ethereum",
  "devdoc": {
    "kind": "dev",
    "methods": {},
    "version": 1
  },
  "userdoc": {
    "kind": "user",
    "methods": {},
    "version": 1
  }
}