{
  "contractName": "Apostas",
  "abi": [
    {
      "anonymous": false,
      "inputs": [
        {
          "indexed": false,
          "internalType": "uint256",
          "name": "eventoId",
          "type": "uint256"
        },
        {
          "indexed": false,
          "internalType": "address",
          "name": "apostador",
          "type": "address"
        },
        {
          "indexed": false,
          "internalType": "uint256",
          "name": "amount",
          "type": "uint256"
        },
        {
          "indexed": false,
          "internalType": "uint256",
          "name": "outcome",
          "type": "uint256"
        }
      ],
      "name": "ApostaRealizada",
      "type": "event"
    },
    {
      "anonymous": false,
      "inputs": [
        {
          "indexed": false,
          "internalType": "uint256",
          "name": "eventoId",
          "type": "uint256"
        },
        {
          "indexed": false,
          "internalType": "uint256",
          "name": "totalApostas",
          "type": "uint256"
        },
        {
          "indexed": false,
          "internalType": "uint256",
          "name": "taxa",
          "type": "uint256"
        },
        {
          "indexed": false,
          "internalType": "uint256",
          "name": "distribuicao",
          "type": "uint256"
        }
      ],
      "name": "DistribuicaoRealizada",
      "type": "event"
    },
    {
      "anonymous": false,
      "inputs": [
        {
          "indexed": false,
          "internalType": "uint256",
          "name": "eventoId",
          "type": "uint256"
        },
        {
          "indexed": false,
          "internalType": "address",
          "name": "criador",
          "type": "address"
        },
        {
          "indexed": false,
          "internalType": "string",
          "name": "nome",
          "type": "string"
        }
      ],
      "name": "EventoCriado",
      "type": "event"
    },
    {
      "anonymous": false,
      "inputs": [
        {
          "indexed": false,
          "internalType": "uint256",
          "name": "eventoId",
          "type": "uint256"
        },
        {
          "indexed": false,
          "internalType": "uint256",
          "name": "resultado",
          "type": "uint256"
        }
      ],
      "name": "ResultadoDefinido",
      "type": "event"
    },
    {
      "inputs": [
        {
          "internalType": "uint256",
          "name": "",
          "type": "uint256"
        },
        {
          "internalType": "uint256",
          "name": "",
          "type": "uint256"
        }
      ],
      "name": "apostasPorEvento",
      "outputs": [
        {
          "internalType": "address",
          "name": "apostador",
          "type": "address"
        },
        {
          "internalType": "uint256",
          "name": "amount",
          "type": "uint256"
        },
        {
          "internalType": "uint256",
          "name": "outcome",
          "type": "uint256"
        }
      ],
      "stateMutability": "view",
      "type": "function",
      "constant": true
    },
    {
      "inputs": [],
      "name": "eventoCount",
      "outputs": [
        {
          "internalType": "uint256",
          "name": "",
          "type": "uint256"
        }
      ],
      "stateMutability": "view",
      "type": "function",
      "constant": true
    },
    {
      "inputs": [
        {
          "internalType": "uint256",
          "name": "",
          "type": "uint256"
        }
      ],
      "name": "eventos",
      "outputs": [
        {
          "internalType": "address",
          "name": "criador",
          "type": "address"
        },
        {
          "internalType": "string",
          "name": "nome",
          "type": "string"
        },
        {
          "internalType": "uint256",
          "name": "resultado",
          "type": "uint256"
        },
        {
          "internalType": "uint256",
          "name": "totalBet1",
          "type": "uint256"
        },
        {
          "internalType": "uint256",
          "name": "totalBet2",
          "type": "uint256"
        },
        {
          "internalType": "bool",
          "name": "finalizado",
          "type": "bool"
        }
      ],
      "stateMutability": "view",
      "type": "function",
      "constant": true
    },
    {
      "inputs": [
        {
          "internalType": "string",
          "name": "_nome",
          "type": "string"
        }
      ],
      "name": "criarEvento",
      "outputs": [],
      "stateMutability": "nonpayable",
      "type": "function"
    },
    {
      "inputs": [],
      "name": "mostrarEventos",
      "outputs": [
        {
          "internalType": "string[]",
          "name": "nomes",
          "type": "string[]"
        },
        {
          "internalType": "address[]",
          "name": "criadores",
          "type": "address[]"
        },
        {
          "internalType": "uint256[]",
          "name": "resultados",
          "type": "uint256[]"
        },
        {
          "internalType": "uint256[]",
          "name": "totalBet1s",
          "type": "uint256[]"
        },
        {
          "internalType": "uint256[]",
          "name": "totalBet2s",
          "type": "uint256[]"
        },
        {
          "internalType": "bool[]",
          "name": "finalizados",
          "type": "bool[]"
        }
      ],
      "stateMutability": "view",
      "type": "function",
      "constant": true
    },
    {
      "inputs": [
        {
          "internalType": "uint256",
          "name": "_eventoId",
          "type": "uint256"
        },
        {
          "internalType": "uint256",
          "name": "_outcome",
          "type": "uint256"
        }
      ],
      "name": "apostar",
      "outputs": [],
      "stateMutability": "payable",
      "type": "function",
      "payable": true
    },
    {
      "inputs": [
        {
          "internalType": "uint256",
          "name": "_eventoId",
          "type": "uint256"
        },
        {
          "internalType": "uint256",
          "name": "_resultado",
          "type": "uint256"
        }
      ],
      "name": "definirResultado",
      "outputs": [],
      "stateMutability": "nonpayable",
      "type": "function"
    },
    {
      "inputs": [
        {
          "internalType": "uint256",
          "name": "_eventoId",
          "type": "uint256"
        }
      ],
      "name": "getApostas",
      "outputs": [
        {
          "components": [
            {
              "internalType": "address",
              "name": "apostador",
              "type": "address"
            },
            {
              "internalType": "uint256",
              "name": "amount",
              "type": "uint256"
            },
            {
              "internalType": "uint256",
              "name": "outcome",
              "type": "uint256"
            }
          ],
          "internalType": "struct Apostas.Bet[]",
          "name": "",
          "type": "tuple[]"
        }
      ],
      "stateMutability": "view",
      "type": "function",
      "constant": true
    }
  ],
  "bytecode": "0x608060405234801561001057600080fd5b506123cc806100206000396000f3fe60806040526004361061007b5760003560e01c80637972c9ab1161004e5780637972c9ab1461013f578063ca8aa4471461017e578063dbd12a7a146101bb578063f2f6da3e146101eb5761007b565b8063087e9d0f146100805780633137791e146100c257806342072b00146100ed578063512fc5de14610116575b600080fd5b34801561008c57600080fd5b506100a760048036038101906100a29190611344565b610207565b6040516100b996959493929190611475565b60405180910390f35b3480156100ce57600080fd5b506100d76102f8565b6040516100e491906114dd565b60405180910390f35b3480156100f957600080fd5b50610114600480360381019061010f91906114f8565b6102fe565b005b34801561012257600080fd5b5061013d6004803603810190610138919061166d565b610819565b005b34801561014b57600080fd5b50610166600480360381019061016191906114f8565b610921565b604051610175939291906116b6565b60405180910390f35b34801561018a57600080fd5b506101a560048036038101906101a09190611344565b610988565b6040516101b291906117fc565b60405180910390f35b3480156101c757600080fd5b506101d0610ab5565b6040516101e296959493929190611b46565b60405180910390f35b610205600480360381019061020091906114f8565b610f2b565b005b60006020528060005260406000206000915090508060000160009054906101000a900473ffffffffffffffffffffffffffffffffffffffff169080600101805461025090611c00565b80601f016020809104026020016040519081016040528092919081815260200182805461027c90611c00565b80156102c95780601f1061029e576101008083540402835291602001916102c9565b820191906000526020600020905b8154815290600101906020018083116102ac57829003601f168201915b5050505050908060020154908060030154908060040154908060050160009054906101000a900460ff16905086565b60025481565b60008211801561031057506002548211155b61034f576040517f08c379a000000000000000000000000000000000000000000000000000000000815260040161034690611c7d565b60405180910390fd5b600080600084815260200190815260200160002090508060000160009054906101000a900473ffffffffffffffffffffffffffffffffffffffff1673ffffffffffffffffffffffffffffffffffffffff163373ffffffffffffffffffffffffffffffffffffffff16146103f7576040517f08c379a00000000000000000000000000000000000000000000000000000000081526004016103ee90611d0f565b60405180910390fd5b600081600201541461043e576040517f08c379a000000000000000000000000000000000000000000000000000000000815260040161043590611d7b565b60405180910390fd5b600182148061044d5750600282145b61048c576040517f08c379a000000000000000000000000000000000000000000000000000000000815260040161048390611e0d565b60405180910390fd5b8060050160009054906101000a900460ff16156104de576040517f08c379a00000000000000000000000000000000000000000000000000000000081526004016104d590611e79565b60405180910390fd5b81816002018190555060018160050160006101000a81548160ff0219169083151502179055507fd755ef8acdf9a898244f61a5ebfcf653e1916ae9073a96003fba8f60ac6e0b3c8383604051610535929190611e99565b60405180910390a16000816004015482600301546105539190611ef1565b905060008111610598576040517f08c379a000000000000000000000000000000000000000000000000000000000815260040161058f90611f93565b60405180910390fd5b6000670de0b6b3a7640000600a670de0b6b3a7640000846105b99190611fb3565b6105c3919061203c565b6105cd919061203c565b9050600081836105dd919061206d565b90508360000160009054906101000a900473ffffffffffffffffffffffffffffffffffffffff1673ffffffffffffffffffffffffffffffffffffffff166108fc839081150290604051600060405180830381858888f19350505050158015610649573d6000803e3d6000fd5b5060006001861461065e578460040154610664565b84600301545b9050600081116106a9576040517f08c379a00000000000000000000000000000000000000000000000000000000081526004016106a090612113565b60405180910390fd5b60005b60016000898152602001908152602001600020805490508110156107d2576000600160008a815260200190815260200160002082815481106106f1576106f0612133565b5b90600052602060002090600302019050878160020154036107be576000670de0b6b3a764000084670de0b6b3a76400008785600101546107319190611fb3565b61073b9190611fb3565b610745919061203c565b61074f919061203c565b90508160000160009054906101000a900473ffffffffffffffffffffffffffffffffffffffff1673ffffffffffffffffffffffffffffffffffffffff166108fc829081150290604051600060405180830381858888f193505050501580156107bb573d6000803e3d6000fd5b50505b5080806107ca90612162565b9150506106ac565b507ff91145684e99b5b74359844fb0b1c999a911a23a735a891b84918eaf338aa1478785858560405161080894939291906121aa565b60405180910390a150505050505050565b6002600081548092919061082c90612162565b9190505550600080600060025481526020019081526020016000209050338160000160006101000a81548173ffffffffffffffffffffffffffffffffffffffff021916908373ffffffffffffffffffffffffffffffffffffffff160217905550818160010190805190602001906108a4929190611257565b5060008160020181905550600081600301819055506000816004018190555060008160050160006101000a81548160ff0219169083151502179055507fbe4c5034fcbf4fd7d1a9165a3daefd6e6e3f3b54c12c27ddc249d1efd2c4b7d06002543384604051610915939291906121ef565b60405180910390a15050565b6001602052816000526040600020818154811061093d57600080fd5b9060005260206000209060030201600091509150508060000160009054906101000a900473ffffffffffffffffffffffffffffffffffffffff16908060010154908060020154905083565b606060008211801561099c57506002548211155b6109db576040517f08c379a00000000000000000000000000000000000000000000000000000000081526004016109d290611c7d565b60405180910390fd5b60016000838152602001908152602001600020805480602002602001604051908101604052809291908181526020016000905b82821015610aaa57838290600052602060002090600302016040518060600160405290816000820160009054906101000a900473ffffffffffffffffffffffffffffffffffffffff1673ffffffffffffffffffffffffffffffffffffffff1673ffffffffffffffffffffffffffffffffffffffff1681526020016001820154815260200160028201548152505081526020019060010190610a0e565b505050509050919050565b60608060608060608060025467ffffffffffffffff811115610ada57610ad9611542565b5b604051908082528060200260200182016040528015610b0d57816020015b6060815260200190600190039081610af85790505b50955060025467ffffffffffffffff811115610b2c57610b2b611542565b5b604051908082528060200260200182016040528015610b5a5781602001602082028036833780820191505090505b50945060025467ffffffffffffffff811115610b7957610b78611542565b5b604051908082528060200260200182016040528015610ba75781602001602082028036833780820191505090505b50935060025467ffffffffffffffff811115610bc657610bc5611542565b5b604051908082528060200260200182016040528015610bf45781602001602082028036833780820191505090505b50925060025467ffffffffffffffff811115610c1357610c12611542565b5b604051908082528060200260200182016040528015610c415781602001602082028036833780820191505090505b50915060025467ffffffffffffffff811115610c6057610c5f611542565b5b604051908082528060200260200182016040528015610c8e5781602001602082028036833780820191505090505b5090506000600190505b6002548111610f22576000808281526020019081526020016000206001018054610cc190611c00565b80601f0160208091040260200160405190810160405280929190818152602001828054610ced90611c00565b8015610d3a5780601f10610d0f57610100808354040283529160200191610d3a565b820191906000526020600020905b815481529060010190602001808311610d1d57829003601f168201915b505050505087600183610d4d919061206d565b81518110610d5e57610d5d612133565b5b602002602001018190525060008082815260200190815260200160002060000160009054906101000a900473ffffffffffffffffffffffffffffffffffffffff1686600183610dad919061206d565b81518110610dbe57610dbd612133565b5b602002602001019073ffffffffffffffffffffffffffffffffffffffff16908173ffffffffffffffffffffffffffffffffffffffff16815250506000808281526020019081526020016000206002015485600183610e1c919061206d565b81518110610e2d57610e2c612133565b5b6020026020010181815250506000808281526020019081526020016000206003015484600183610e5d919061206d565b81518110610e6e57610e6d612133565b5b6020026020010181815250506000808281526020019081526020016000206004015483600183610e9e919061206d565b81518110610eaf57610eae612133565b5b60200260200101818152505060008082815260200190815260200160002060050160009054906101000a900460ff1682600183610eec919061206d565b81518110610efd57610efc612133565b5b6020026020010190151590811515815250508080610f1a90612162565b915050610c98565b50909192939495565b600082118015610f3d57506002548211155b610f7c576040517f08c379a0000000000000000000000000000000000000000000000000000000008152600401610f7390611c7d565b60405180910390fd5b600080600084815260200190815260200160002090508060050160009054906101000a900460ff1615610fe4576040517f08c379a0000000000000000000000000000000000000000000000000000000008152600401610fdb90611e79565b60405180910390fd5b6001821480610ff35750600282145b611032576040517f08c379a000000000000000000000000000000000000000000000000000000000815260040161102990611e0d565b60405180910390fd5b8060000160009054906101000a900473ffffffffffffffffffffffffffffffffffffffff1673ffffffffffffffffffffffffffffffffffffffff163373ffffffffffffffffffffffffffffffffffffffff16036110c4576040517f08c379a00000000000000000000000000000000000000000000000000000000081526004016110bb9061229f565b60405180910390fd5b60003411611107576040517f08c379a00000000000000000000000000000000000000000000000000000000081526004016110fe90612331565b60405180910390fd5b6001820361112f57348160030160008282546111239190611ef1565b9250508190555061114b565b348160040160008282546111439190611ef1565b925050819055505b6001600084815260200190815260200160002060405180606001604052803373ffffffffffffffffffffffffffffffffffffffff16815260200134815260200184815250908060018154018082558091505060019003906000526020600020906003020160009091909190915060008201518160000160006101000a81548173ffffffffffffffffffffffffffffffffffffffff021916908373ffffffffffffffffffffffffffffffffffffffff160217905550602082015181600101556040820151816002015550507f016ecf1345d8dada1f4d53f2e6555f679317bba58efdd2d8edd8b1d1ea8a14be8333348560405161124a9493929190612351565b60405180910390a1505050565b82805461126390611c00565b90600052602060002090601f01602090048101928261128557600085556112cc565b82601f1061129e57805160ff19168380011785556112cc565b828001600101855582156112cc579182015b828111156112cb5782518255916020019190600101906112b0565b5b5090506112d991906112dd565b5090565b5b808211156112f65760008160009055506001016112de565b5090565b6000604051905090565b600080fd5b600080fd5b6000819050919050565b6113218161130e565b811461132c57600080fd5b50565b60008135905061133e81611318565b92915050565b60006020828403121561135a57611359611304565b5b60006113688482850161132f565b91505092915050565b600073ffffffffffffffffffffffffffffffffffffffff82169050919050565b600061139c82611371565b9050919050565b6113ac81611391565b82525050565b600081519050919050565b600082825260208201905092915050565b60005b838110156113ec5780820151818401526020810190506113d1565b838111156113fb576000848401525b50505050565b6000601f19601f8301169050919050565b600061141d826113b2565b61142781856113bd565b93506114378185602086016113ce565b61144081611401565b840191505092915050565b6114548161130e565b82525050565b60008115159050919050565b61146f8161145a565b82525050565b600060c08201905061148a60008301896113a3565b818103602083015261149c8188611412565b90506114ab604083018761144b565b6114b8606083018661144b565b6114c5608083018561144b565b6114d260a0830184611466565b979650505050505050565b60006020820190506114f2600083018461144b565b92915050565b6000806040838503121561150f5761150e611304565b5b600061151d8582860161132f565b925050602061152e8582860161132f565b9150509250929050565b600080fd5b600080fd5b7f4e487b7100000000000000000000000000000000000000000000000000000000600052604160045260246000fd5b61157a82611401565b810181811067ffffffffffffffff8211171561159957611598611542565b5b80604052505050565b60006115ac6112fa565b90506115b88282611571565b919050565b600067ffffffffffffffff8211156115d8576115d7611542565b5b6115e182611401565b9050602081019050919050565b82818337600083830152505050565b600061161061160b846115bd565b6115a2565b90508281526020810184848401111561162c5761162b61153d565b5b6116378482856115ee565b509392505050565b600082601f83011261165457611653611538565b5b81356116648482602086016115fd565b91505092915050565b60006020828403121561168357611682611304565b5b600082013567ffffffffffffffff8111156116a1576116a0611309565b5b6116ad8482850161163f565b91505092915050565b60006060820190506116cb60008301866113a3565b6116d8602083018561144b565b6116e5604083018461144b565b949350505050565b600081519050919050565b600082825260208201905092915050565b6000819050602082019050919050565b61172281611391565b82525050565b6117318161130e565b82525050565b60608201600082015161174d6000850182611719565b5060208201516117606020850182611728565b5060408201516117736040850182611728565b50505050565b60006117858383611737565b60608301905092915050565b6000602082019050919050565b60006117a9826116ed565b6117b381856116f8565b93506117be83611709565b8060005b838110156117ef5781516117d68882611779565b97506117e183611791565b9250506001810190506117c2565b5085935050505092915050565b60006020820190508181036000830152611816818461179e565b905092915050565b600081519050919050565b600082825260208201905092915050565b6000819050602082019050919050565b600082825260208201905092915050565b6000611866826113b2565b611870818561184a565b93506118808185602086016113ce565b61188981611401565b840191505092915050565b60006118a0838361185b565b905092915050565b6000602082019050919050565b60006118c08261181e565b6118ca8185611829565b9350836020820285016118dc8561183a565b8060005b8581101561191857848403895281516118f98582611894565b9450611904836118a8565b925060208a019950506001810190506118e0565b50829750879550505050505092915050565b600081519050919050565b600082825260208201905092915050565b6000819050602082019050919050565b60006119628383611719565b60208301905092915050565b6000602082019050919050565b60006119868261192a565b6119908185611935565b935061199b83611946565b8060005b838110156119cc5781516119b38882611956565b97506119be8361196e565b92505060018101905061199f565b5085935050505092915050565b600081519050919050565b600082825260208201905092915050565b6000819050602082019050919050565b6000611a118383611728565b60208301905092915050565b6000602082019050919050565b6000611a35826119d9565b611a3f81856119e4565b9350611a4a836119f5565b8060005b83811015611a7b578151611a628882611a05565b9750611a6d83611a1d565b925050600181019050611a4e565b5085935050505092915050565b600081519050919050565b600082825260208201905092915050565b6000819050602082019050919050565b611abd8161145a565b82525050565b6000611acf8383611ab4565b60208301905092915050565b6000602082019050919050565b6000611af382611a88565b611afd8185611a93565b9350611b0883611aa4565b8060005b83811015611b39578151611b208882611ac3565b9750611b2b83611adb565b925050600181019050611b0c565b5085935050505092915050565b600060c0820190508181036000830152611b6081896118b5565b90508181036020830152611b74818861197b565b90508181036040830152611b888187611a2a565b90508181036060830152611b9c8186611a2a565b90508181036080830152611bb08185611a2a565b905081810360a0830152611bc48184611ae8565b9050979650505050505050565b7f4e487b7100000000000000000000000000000000000000000000000000000000600052602260045260246000fd5b60006002820490506001821680611c1857607f821691505b602082108103611c2b57611c2a611bd1565b5b50919050565b7f4576656e746f20696e76616c69646f2e00000000000000000000000000000000600082015250565b6000611c676010836113bd565b9150611c7282611c31565b602082019050919050565b60006020820190508181036000830152611c9681611c5a565b9050919050565b7f4170656e6173206f2063726961646f7220706f646520646566696e6972206f2060008201527f726573756c7461646f2e00000000000000000000000000000000000000000000602082015250565b6000611cf9602a836113bd565b9150611d0482611c9d565b604082019050919050565b60006020820190508181036000830152611d2881611cec565b9050919050565b7f526573756c7461646f206a6120646566696e69646f2e00000000000000000000600082015250565b6000611d656016836113bd565b9150611d7082611d2f565b602082019050919050565b60006020820190508181036000830152611d9481611d58565b9050919050565b7f526573756c7461646f20696e76616c69646f2e2055736520312070617261204360008201527f617261206f752032207061726120436f726f612e000000000000000000000000602082015250565b6000611df76034836113bd565b9150611e0282611d9b565b604082019050919050565b60006020820190508181036000830152611e2681611dea565b9050919050565b7f4576656e746f206a612066696e616c697a61646f2e0000000000000000000000600082015250565b6000611e636015836113bd565b9150611e6e82611e2d565b602082019050919050565b60006020820190508181036000830152611e9281611e56565b9050919050565b6000604082019050611eae600083018561144b565b611ebb602083018461144b565b9392505050565b7f4e487b7100000000000000000000000000000000000000000000000000000000600052601160045260246000fd5b6000611efc8261130e565b9150611f078361130e565b9250827fffffffffffffffffffffffffffffffffffffffffffffffffffffffffffffffff03821115611f3c57611f3b611ec2565b5b828201905092915050565b7f4e616f2068612061706f73746173207061726120646973747269627569722e00600082015250565b6000611f7d601f836113bd565b9150611f8882611f47565b602082019050919050565b60006020820190508181036000830152611fac81611f70565b9050919050565b6000611fbe8261130e565b9150611fc98361130e565b9250817fffffffffffffffffffffffffffffffffffffffffffffffffffffffffffffffff048311821515161561200257612001611ec2565b5b828202905092915050565b7f4e487b7100000000000000000000000000000000000000000000000000000000600052601260045260246000fd5b60006120478261130e565b91506120528361130e565b9250826120625761206161200d565b5b828204905092915050565b60006120788261130e565b91506120838361130e565b92508282101561209657612095611ec2565b5b828203905092915050565b7f4e616f2068612076656e6365646f72657320706172612064697374726962756960008201527f722e000000000000000000000000000000000000000000000000000000000000602082015250565b60006120fd6022836113bd565b9150612108826120a1565b604082019050919050565b6000602082019050818103600083015261212c816120f0565b9050919050565b7f4e487b7100000000000000000000000000000000000000000000000000000000600052603260045260246000fd5b600061216d8261130e565b91507fffffffffffffffffffffffffffffffffffffffffffffffffffffffffffffffff820361219f5761219e611ec2565b5b600182019050919050565b60006080820190506121bf600083018761144b565b6121cc602083018661144b565b6121d9604083018561144b565b6121e6606083018461144b565b95945050505050565b6000606082019050612204600083018661144b565b61221160208301856113a3565b81810360408301526122238184611412565b9050949350505050565b7f43726961646f7220646f206576656e746f206e616f20706f64652061706f737460008201527f6172206e65737465206576656e746f2e00000000000000000000000000000000602082015250565b60006122896030836113bd565b91506122948261222d565b604082019050919050565b600060208201905081810360008301526122b88161227c565b9050919050565b7f56616c6f722064612061706f737461206465766520736572206d61696f72207160008201527f7565207a65726f2e000000000000000000000000000000000000000000000000602082015250565b600061231b6028836113bd565b9150612326826122bf565b604082019050919050565b6000602082019050818103600083015261234a8161230e565b9050919050565b6000608082019050612366600083018761144b565b61237360208301866113a3565b612380604083018561144b565b61238d606083018461144b565b9594505050505056fea2646970667358221220ec7dbf06eb9b3919d22935db0f7e50d5768f455eeae08a747f264ea4865288dc64736f6c634300080d0033",
  "immutableReferences": {},
  "source": "// SPDX-License-Identifier: MIT\r\npragma solidity ^0.8.0;\r\n\r\ncontract Apostas {\r\n\r\n    uint constant PRECISION = 1e18; // Constante de preciso\r\n\r\n    struct Evento {\r\n        address criador;\r\n        string nome;\r\n        uint resultado; // 0 - No resolvido, 1 - Cara, 2 - Coroa\r\n        uint totalBet1; // Total apostado em Cara\r\n        uint totalBet2; // Total apostado em Coroa\r\n        bool finalizado; // Indica se o evento foi finalizado\r\n    }\r\n\r\n    struct Bet {\r\n        address apostador;\r\n        uint amount;\r\n        uint outcome; // 1 - Cara, 2 - Coroa\r\n    }\r\n\r\n    mapping(uint => Evento) public eventos;\r\n    mapping(uint => Bet[]) public apostasPorEvento;\r\n    uint public eventoCount;\r\n\r\n    // Eventos Solidity para notificao no front-end\r\n    event EventoCriado(uint eventoId, address criador, string nome);\r\n    event ApostaRealizada(uint eventoId, address apostador, uint amount, uint outcome);\r\n    event ResultadoDefinido(uint eventoId, uint resultado);\r\n    event DistribuicaoRealizada(uint eventoId, uint totalApostas, uint taxa, uint distribuicao);\r\n\r\n    // Funo para criar um evento de aposta\r\n    function criarEvento(string memory _nome) public {\r\n        eventoCount++;\r\n        Evento storage novoEvento = eventos[eventoCount];\r\n        novoEvento.criador = msg.sender;\r\n        novoEvento.nome = _nome;\r\n        novoEvento.resultado = 0; // Inicializa como \"no resolvido\"\r\n        novoEvento.totalBet1 = 0;\r\n        novoEvento.totalBet2 = 0;\r\n        novoEvento.finalizado = false;\r\n\r\n        emit EventoCriado(eventoCount, msg.sender, _nome);\r\n    }\r\n\r\n    // Funo para mostrar todos os eventos criados\r\n    function mostrarEventos() public view returns (\r\n        string[] memory nomes,\r\n        address[] memory criadores,\r\n        uint[] memory resultados,\r\n        uint[] memory totalBet1s,\r\n        uint[] memory totalBet2s,\r\n        bool[] memory finalizados\r\n    ) {\r\n        nomes = new string[](eventoCount);\r\n        criadores = new address[](eventoCount);\r\n        resultados = new uint[](eventoCount);\r\n        totalBet1s = new uint[](eventoCount);\r\n        totalBet2s = new uint[](eventoCount);\r\n        finalizados = new bool[](eventoCount);\r\n        \r\n        for (uint i = 1; i <= eventoCount; i++) {\r\n            nomes[i - 1] = eventos[i].nome;\r\n            criadores[i - 1] = eventos[i].criador;\r\n            resultados[i - 1] = eventos[i].resultado;\r\n            totalBet1s[i - 1] = eventos[i].totalBet1;\r\n            totalBet2s[i - 1] = eventos[i].totalBet2;\r\n            finalizados[i - 1] = eventos[i].finalizado;\r\n        }\r\n\r\n        return (nomes, criadores, resultados, totalBet1s, totalBet2s, finalizados);\r\n    }\r\n\r\n    // Funo para apostar em um evento\r\n    function apostar(uint _eventoId, uint _outcome) public payable {\r\n        require(_eventoId > 0 && _eventoId <= eventoCount, \"Evento invalido.\");\r\n        Evento storage evento = eventos[_eventoId];\r\n        require(!evento.finalizado, \"Evento ja finalizado.\");\r\n        require(_outcome == 1 || _outcome == 2, \"Resultado invalido. Use 1 para Cara ou 2 para Coroa.\");\r\n        require(msg.sender != evento.criador, \"Criador do evento nao pode apostar neste evento.\");\r\n        require(msg.value > 0, \"Valor da aposta deve ser maior que zero.\");\r\n\r\n        // Atualizar o total apostado com base no resultado escolhido\r\n        if (_outcome == 1) {\r\n            evento.totalBet1 += msg.value;\r\n        } else {\r\n            evento.totalBet2 += msg.value;\r\n        }\r\n\r\n        // Registrar a aposta\r\n        apostasPorEvento[_eventoId].push(Bet({\r\n            apostador: msg.sender,\r\n            amount: msg.value,\r\n            outcome: _outcome\r\n        }));\r\n\r\n        emit ApostaRealizada(_eventoId, msg.sender, msg.value, _outcome);\r\n    }\r\n\r\n    // Funo para definir o resultado de um evento\r\n    function definirResultado(uint _eventoId, uint _resultado) public {\r\n        require(_eventoId > 0 && _eventoId <= eventoCount, \"Evento invalido.\");\r\n        Evento storage evento = eventos[_eventoId];\r\n        require(msg.sender == evento.criador, \"Apenas o criador pode definir o resultado.\");\r\n        require(evento.resultado == 0, \"Resultado ja definido.\");\r\n        require(_resultado == 1 || _resultado == 2, \"Resultado invalido. Use 1 para Cara ou 2 para Coroa.\");\r\n        require(!evento.finalizado, \"Evento ja finalizado.\");\r\n\r\n        evento.resultado = _resultado;\r\n        evento.finalizado = true;\r\n\r\n        emit ResultadoDefinido(_eventoId, _resultado);\r\n\r\n        // Calcular total de apostas\r\n        uint totalApostas = evento.totalBet1 + evento.totalBet2;\r\n        require(totalApostas > 0, \"Nao ha apostas para distribuir.\");\r\n\r\n        // Calcular taxa de 10%\r\n        uint taxa = (totalApostas * PRECISION) / 10 / PRECISION; // 10% de taxa\r\n\r\n        // Calcular total para distribuicao\r\n        uint totalDistribuir = totalApostas - taxa;\r\n\r\n        // Enviar taxa para o criador\r\n        payable(evento.criador).transfer(taxa);\r\n\r\n        // Determinar qual resultado venceu\r\n        uint totalVencedores = (_resultado == 1) ? evento.totalBet1 : evento.totalBet2;\r\n        require(totalVencedores > 0, \"Nao ha vencedores para distribuir.\");\r\n\r\n        // Distribuir os fundos aos vencedores\r\n        for (uint i = 0; i < apostasPorEvento[_eventoId].length; i++) {\r\n            Bet storage aposta = apostasPorEvento[_eventoId][i];\r\n            if (aposta.outcome == _resultado) {\r\n                // Calcular a parcela do vencedor com maior preciso\r\n                uint parcela = (aposta.amount * totalDistribuir * PRECISION) / totalVencedores / PRECISION;\r\n                payable(aposta.apostador).transfer(parcela);\r\n            }\r\n        }\r\n\r\n        emit DistribuicaoRealizada(_eventoId, totalApostas, taxa, totalDistribuir);\r\n    }\r\n\r\n    // Funo para obter todas as apostas de um evento especfico\r\n    function getApostas(uint _eventoId) public view returns (Bet[] memory) {\r\n        require(_eventoId > 0 && _eventoId <= eventoCount, \"Evento invalido.\");\r\n        return apostasPorEvento[_eventoId];\r\n    }\r\n}\r\n",
  "sourcePath": "D:\\GitHub\\pbl-redes3\\contracts\\Apostas.sol",
  "compiler": {
    "name": "solc",
    "version": "0.8.13+commit.abaa5c0e.Emscripten.clang"
  },
  "schemaVersion": "3.4.16",
  "updatedAt": "2024-12-17T04:54:23.402Z",
  "networkType": "ethereum",
  "devdoc": {
    "kind": "dev",
    "methods": {},
    "version": 1
  },
  "userdoc": {
    "kind": "user",
    "methods": {},
    "version": 1
  }
}