{
  "contractName": "Apostas",
  "abi": [
    {
      "inputs": [],
      "name": "eventoCount",
      "outputs": [
        {
          "internalType": "uint256",
          "name": "",
          "type": "uint256"
        }
      ],
      "stateMutability": "view",
      "type": "function",
      "constant": true
    },
    {
      "inputs": [
        {
          "internalType": "uint256",
          "name": "",
          "type": "uint256"
        }
      ],
      "name": "eventos",
      "outputs": [
        {
          "internalType": "address",
          "name": "criador",
          "type": "address"
        },
        {
          "internalType": "string",
          "name": "nome",
          "type": "string"
        },
        {
          "internalType": "uint256",
          "name": "resultado",
          "type": "uint256"
        }
      ],
      "stateMutability": "view",
      "type": "function",
      "constant": true
    },
    {
      "inputs": [
        {
          "internalType": "string",
          "name": "_nome",
          "type": "string"
        }
      ],
      "name": "criarEvento",
      "outputs": [],
      "stateMutability": "nonpayable",
      "type": "function"
    }
  ],
  "bytecode": "0x608060405234801561001057600080fd5b5061070b806100206000396000f3fe608060405234801561001057600080fd5b50600436106100415760003560e01c8063087e9d0f146100465780633137791e14610078578063512fc5de14610096575b600080fd5b610060600480360381019061005b9190610311565b6100b2565b60405161006f93929190610427565b60405180910390f35b610080610184565b60405161008d9190610465565b60405180910390f35b6100b060048036038101906100ab91906105b5565b61018a565b005b60006020528060005260406000206000915090508060000160009054906101000a900473ffffffffffffffffffffffffffffffffffffffff16908060010180546100fb9061062d565b80601f01602080910402602001604051908101604052809291908181526020018280546101279061062d565b80156101745780601f1061014957610100808354040283529160200191610174565b820191906000526020600020905b81548152906001019060200180831161015757829003601f168201915b5050505050908060020154905083565b60015481565b6001600081548092919061019d9061068d565b9190505550600080600060015481526020019081526020016000209050338160000160006101000a81548173ffffffffffffffffffffffffffffffffffffffff021916908373ffffffffffffffffffffffffffffffffffffffff16021790555081816001019080519060200190610215929190610224565b50600081600201819055505050565b8280546102309061062d565b90600052602060002090601f0160209004810192826102525760008555610299565b82601f1061026b57805160ff1916838001178555610299565b82800160010185558215610299579182015b8281111561029857825182559160200191906001019061027d565b5b5090506102a691906102aa565b5090565b5b808211156102c35760008160009055506001016102ab565b5090565b6000604051905090565b600080fd5b600080fd5b6000819050919050565b6102ee816102db565b81146102f957600080fd5b50565b60008135905061030b816102e5565b92915050565b600060208284031215610327576103266102d1565b5b6000610335848285016102fc565b91505092915050565b600073ffffffffffffffffffffffffffffffffffffffff82169050919050565b60006103698261033e565b9050919050565b6103798161035e565b82525050565b600081519050919050565b600082825260208201905092915050565b60005b838110156103b957808201518184015260208101905061039e565b838111156103c8576000848401525b50505050565b6000601f19601f8301169050919050565b60006103ea8261037f565b6103f4818561038a565b935061040481856020860161039b565b61040d816103ce565b840191505092915050565b610421816102db565b82525050565b600060608201905061043c6000830186610370565b818103602083015261044e81856103df565b905061045d6040830184610418565b949350505050565b600060208201905061047a6000830184610418565b92915050565b600080fd5b600080fd5b7f4e487b7100000000000000000000000000000000000000000000000000000000600052604160045260246000fd5b6104c2826103ce565b810181811067ffffffffffffffff821117156104e1576104e061048a565b5b80604052505050565b60006104f46102c7565b905061050082826104b9565b919050565b600067ffffffffffffffff8211156105205761051f61048a565b5b610529826103ce565b9050602081019050919050565b82818337600083830152505050565b600061055861055384610505565b6104ea565b90508281526020810184848401111561057457610573610485565b5b61057f848285610536565b509392505050565b600082601f83011261059c5761059b610480565b5b81356105ac848260208601610545565b91505092915050565b6000602082840312156105cb576105ca6102d1565b5b600082013567ffffffffffffffff8111156105e9576105e86102d6565b5b6105f584828501610587565b91505092915050565b7f4e487b7100000000000000000000000000000000000000000000000000000000600052602260045260246000fd5b6000600282049050600182168061064557607f821691505b602082108103610658576106576105fe565b5b50919050565b7f4e487b7100000000000000000000000000000000000000000000000000000000600052601160045260246000fd5b6000610698826102db565b91507fffffffffffffffffffffffffffffffffffffffffffffffffffffffffffffffff82036106ca576106c961065e565b5b60018201905091905056fea2646970667358221220994e35a554d26d861722e23d3b8b947dbf97707532ca06835665713d7374fd9a64736f6c634300080d0033",
  "immutableReferences": {},
  "source": "// SPDX-License-Identifier: MIT\r\npragma solidity ^0.8.0;\r\n\r\ncontract Apostas {\r\n\r\n    struct Evento {\r\n        address criador;\r\n        string nome;\r\n        uint resultado; // 0 - No resolvido, 1 - Cara, 2 - Coroa\r\n        mapping(address => uint) apostas; // Mapeia o endereo do apostador para o valor da aposta\r\n        mapping(address => bool) apostadorCorreto; // Mapeia os apostadores corretos\r\n    }\r\n\r\n    mapping(uint => Evento) public eventos;\r\n    uint public eventoCount;\r\n\r\n    // Funo para criar um evento de aposta\r\n    function criarEvento(string memory _nome) public {\r\n        eventoCount++;\r\n        Evento storage novoEvento = eventos[eventoCount];\r\n        novoEvento.criador = msg.sender;\r\n        novoEvento.nome = _nome;\r\n        novoEvento.resultado = 0; // Inicializa como \"no resolvido\"\r\n    }\r\n}\r\n",
  "sourcePath": "D:\\GitHub\\pbl-redes3\\contracts\\Apostas.sol",
  "compiler": {
    "name": "solc",
    "version": "0.8.13+commit.abaa5c0e.Emscripten.clang"
  },
  "schemaVersion": "3.4.16",
  "updatedAt": "2024-12-16T18:23:33.675Z",
  "networkType": "ethereum",
  "devdoc": {
    "kind": "dev",
    "methods": {},
    "version": 1
  },
  "userdoc": {
    "kind": "user",
    "methods": {},
    "version": 1
  }
}